:020000040800F2
:1000000060070020D90E00084102000843020008E2
:10001000470200084B0200084F02000800000000E1
:100020000000000000000000000000005302000873
:10003000550200080000000057020008590200089D
:10004000F30E0008F30E0008F30E0008F30E00088C
:10005000F30E0008F30E0008F30E0008F30E00087C
:10006000F30E0008F30E0008F30E0008F30E00086C
:10007000F30E0008F30E0008F30E0008F30E00085C
:10008000F30E0008F30E0008F30E0008F30E00084C
:10009000F30E0008F30E0008F30E0008F30E00083C
:1000A000F30E0008F30E0008F30E0008F30E00082C
:1000B000F30E0008F30E0008F30E0008F30E00081C
:1000C000F30E0008F30E0008F30E0008F30E00080C
:1000D000F30E00084F0E0008F30E0008F30E0008A0
:1000E000F30E0008F30E0008F30E0008F30E0008EC
:1000F000F30E0008F30E0008F30E0008F30E0008DC
:10010000F30E0008F30E0008F30E0008F30E0008CB
:10011000F30E0008F30E0008F30E0008F30E0008BB
:10012000F30E0008F30E0008F30E0008F30E0008AB
:1001300000F002F800F03AF80AA090E8000C8244BF
:100140008344AAF10107DA4501D100F02FF8AFF29C
:10015000090EBAE80F0013F0010F18BFFB1A43F0A5
:1001600001031847081A0000281A0000103A24BF9B
:1001700078C878C1FAD8520724BF30C830C144BF0C
:1001800004680C607047000000230024002500264E
:10019000103A28BF78C1FBD8520728BF30C148BFEA
:1001A0000B6070471FB51FBD10B510BD01F0ABFC53
:1001B0001146FFF7F7FF00F009F801F0C9FC03B49E
:1001C000FFF7F2FF03BC00F0E7FD000086B000BFC0
:1001D000012416A207CA03AB07C317A103C9CDE9BF
:1001E000010100F069FD00F0D1FD00F0B3FA7C21BF
:1001F000182000F014FB2D21182000F010FB14E053
:100200007C21182000F00BFB1821084600F007FBAA
:10021000E1B2182000F003FBC82000F08AFD04F1D1
:100220000A0084B2FA2C00DB0124E9E731323334CE
:10023000353637383900000010060908080906006D
:10024000704700BFFEE700BFFEE700BFFEE700BF4C
:10025000FEE7704770477047704700000CB50020FC
:10026000019000906C48006840F480306A49086052
:1002700000BF6948006800F4003000900198401CFD
:100280000190009818B90198B0F5A06FF1D16248BB
:10029000006800F4003010B10120009001E000205F
:1002A00000900098012843D15C48006840F010009D
:1002B0005A4908600846006820F0030008600846B4
:1002C000006840F0020008605348406852494860A6
:1002D0000846406848600846406840F480604860CE
:1002E0000846406820F47C1048600846406840F4A6
:1002F000E81048600846006840F08070086000BF61
:100300004548006800F000700028F9D04248406875
:1003100020F00300404948600846406840F0020071
:10032000486000BF3C48406800F00C000828F9D144
:100330000CBD10B5FFF792FF10BD10B53648006830
:1003400040F00100344908600846406834490840DC
:100350003149486008460068324908402E49086023
:100360000846006820F4802008600846406820F4B1
:10037000FE0048604FF41F008860FFF7DAFF4FF07F
:1003800000602949086010BD10B50021002000223E
:10039000214B5B6803F00C0121B1042906D0082928
:1003A00028D107E0214B224C236027E01F4B204C33
:1003B000236023E0184B5B6803F47010164B5B68F6
:1003C00003F48032022303EB904022B9194B4343DC
:1003D000174C23600DE0104B5B6803F4003323B12E
:1003E000144B4343124C236003E0104B4343104C27
:1003F000236003E00D4B0E4C236000BF00BF064B93
:100400005B68C3F303130C4CE15C094B1B68CB40E6
:10041000074C236010BD0000001002400020024085
:100420000000FFF8FFFFF6FE08ED00E000127A0082
:100430000000002000093D000400002008B5012153
:10044000042001F0F3F80420ADF8000010208DF82E
:10045000030003208DF802006946FB4800F02AFEE5
:100460000820ADF8000010208DF8030003208DF85F
:1004700002006946F44800F01DFE08BD7047704751
:1004800010B5F1481030006840F00400EE4910311A
:100490000860042000F029FCEB481030006840F0B0
:1004A0000800E94910310860022000F01EFCE6480F
:1004B0001430006840F00400E34914310860022061
:1004C00000F013FCE0481430006840F00800DE49FA
:1004D00014310860022000F008FC10BD10B5DA48A5
:1004E0001430006840F00400D7491431086003203C
:1004F00000F0FBFBD4481030006840F00800D249FF
:1005000010310860032000F0F0FBCF481030006885
:1005100040F00400CC4910310860032000F0E5FBF6
:1005200010BD10B5C8481030006840F00400C6493E
:1005300010310860032000F0D8FBC3481030006879
:1005400040F00800C04910310860032000F0CDFBE6
:10055000BD481430006840F00800BB491431086001
:10056000032000F0C2FBB8481430006840F00400DB
:10057000B54914310860032000F0B7FB10BD10B579
:10058000B1481430006840F00400AF4914310860ED
:10059000032000F0AAFBAC481430006840F00800CB
:1005A000A94914310860032000F09FFBA6481030D1
:1005B000006840F00800A44910310860032000F0F2
:1005C00094FBA1481430006840F008009E491431A3
:1005D0000860032000F089FB9B481430006840F05D
:1005E0000400994914310860032000F07EFB10BD1F
:1005F00070B5064600242DE006FA04F000F08000F5
:1006000040B191481030006840F004008E4910312C
:10061000086007E08C481430006840F004008A4904
:1006200014310860032000F060FB87481030006838
:1006300040F00800844910310860032000F055FBA9
:1006400081481430006840F008007F491431086088
:10065000601CC4B2082CCFDB032000F046FB7A48B4
:10066000006820F47060784908600846006840F42B
:1006700000600860032000F038FB73481030006809
:1006800040F00800704910310860142000F02DFB84
:1006900004216D4800F0A1FD08B1002500E001250E
:1006A00069481430006840F0080067491431086058
:1006B000032000F01AFB6448006820F4706062496F
:1006C00008600846006840F440700860284670BD25
:1006D00070B500245C48006820F470605A490860D6
:1006E0000846006840F400600860142000F0FDFA3D
:1006F000082520E0032000F0F8FA53481030006885
:1007000040F008005049103108606006040E0421D2
:100710004D4800F062FD08B1601CC4B2032000F037
:10072000E4FA49481430006840F0080046491431A2
:100730000860681EC5B2002DDCDC4348006820F468
:100740007060414908600846006840F440700860E5
:10075000204670BD10B5FFF771FEFFF78FFE10BD8C
:1007600070B505460C46FFF78AFE032000F0BDFA7F
:10077000FFF786FE2846FFF73BFF28B9FFF7AEFEDE
:10078000FFF77CFE012070BD032000F0AEFA20468A
:10079000FFF72EFF28B9FFF7A1FEFFF76FFE02203B
:1007A000F1E7FFF79BFEFFF769FE0020EBE702464B
:1007B0000020704770B506460C461546FFF75FFEF1
:1007C000032000F092FAFFF75BFE3046FFF710FFC0
:1007D00028B9FFF783FEFFF751FE012070BD03200B
:1007E00000F083FA2046FFF703FF28B9FFF776FEF3
:1007F000FFF744FE0220F1E7032000F076FA2846D6
:10080000FFF7F6FE28B9FFF769FEFFF737FE032072
:10081000E4E7FFF763FEFFF731FE0020DEE770B587
:1008200005460C46FFF72BFE032000F05EFAFFF7AB
:1008300027FE2846FFF7DCFE40B9FFF74FFEFFF723
:100840001DFE012070BD000000080140032000F0E3
:100850004CFA2046FFF7CCFE28B9FFF73FFEFFF722
:100860000DFE0320EEE7FFF739FEFFF707FE00203D
:10087000E8E72DE9F04180460C4615461E46002764
:10088000FFF7FDFD032000F030FAFFF7F9FD4046C9
:10089000FFF7AEFE30B9FFF721FEFFF7EFFD0120B5
:1008A000BDE8F081032000F020FA2046FFF7A0FE0B
:1008B00028B9FFF713FEFFF7E1FD0220F0E7032060
:1008C00000F013FA00270BE02846FFF791FE28B945
:1008D000FFF704FEFFF7D2FD0320E1E7781CC7B263
:1008E000B742F1DBFFF7FAFDFFF7C8FD0020D7E7BD
:1008F0002DE9F04107460D4616460024FFF7BFFDDF
:10090000032000F0F2F9FFF7BBFD3846FFF770FE59
:1009100030B9FFF7E3FDFFF7B1FD0120BDE8F0813D
:1009200000240BE0285DFFF763FE28B9FFF7D6FD32
:10093000FFF7A4FD0320F1E7601CC4B2B442F1DB71
:10094000FFF7CCFDFFF79AFD0020E7E70346002004
:10095000704770B506460C461546FFF790FD03201C
:1009600000F0C3F9FFF78CFD3046FFF741FE28B9D0
:10097000FFF7B4FDFFF782FD012070BD032000F0FA
:10098000B4F92012FFF734FE28B9FFF7A7FDFFF7EF
:1009900075FD0220F1E7032000F0A7F9E0B2FFF7B0
:1009A00027FE28B9FFF79AFDFFF768FD0320E4E76B
:1009B000032000F09AF92846FFF71AFE28B9FFF73E
:1009C0008DFDFFF75BFD0420D7E7FFF787FDFFF7FD
:1009D00055FD0020D1E703460020704770B504465E
:1009E0000D461646FFF74BFD032000F07EF9FFF79A
:1009F00047FD2046FFF7FCFD28B9FFF76FFDFFF725
:100A00003DFD012070BD032000F06FF92846FFF77F
:100A1000EFFD28B9FFF762FDFFF730FD0220F1E797
:100A2000FFF75CFD032000F060F9FFF729FD44F0BB
:100A30000100FFF7DDFD28B9FFF750FDFFF71EFDB0
:100A40000320DFE7032000F050F9FFF741FE30708C
:100A5000FFF767FDFFF742FDFFF710FD0020D1E72C
:100A600003460020704770B505460C461646FFF752
:100A700006FDFFF705FD2846FFF7BAFD28B9FFF789
:100A80002DFDFFF7FBFC012070BD032000F02DF9C8
:100A90002012FFF7ADFD28B9FFF720FDFFF7EEFCB0
:100AA0000220F1E7032000F020F9E0B2FFF7A0FDFB
:100AB00028B9FFF713FDFFF7E1FC0320E4E703206B
:100AC00000F013F9FFF70AFD032000F00EF9FFF71D
:100AD000D7FC45F00100FFF78BFD28B9FFF7FEFCBE
:100AE000FFF7CCFC0420CFE7032000F0FEF8FFF76F
:100AF000EFFD3070FFF715FDFFF7F0FCFFF7BEFCD0
:100B00000020C1E703460020704770B50546002667
:100B1000002400BF12E0FFF7B2FCFFF7B1FC204653
:100B2000FFF766FD012803D13046711CCEB22C546C
:100B3000FFF7D4FCFFF7A2FC601CC4B2FF2CEADD77
:100B4000304670BD10B50446FFF799FCFFF798FCDE
:100B50002046FFF74DFD012805D1FFF7BFFCFFF749
:100B60008DFC002010BDFFF7B9FCFFF787FC0120CA
:100B7000F8E710B504462078112806D012280DD0C9
:100B8000212814D0222824D11AE0A2792179A07832
:100B9000FFF710FE08B1012010BD1CE0E2882179AA
:100BA000A078FFF7D3FE08B10120F5E713E0A279A2
:100BB000A188A078FFF7CDFE08B10120ECE70AE09C
:100BC000E288A188A078FFF706FF08B10120E3E7DB
:100BD00001E00120E0E700BF0020DDE71CB504468E
:100BE000002000902078112806D012280DD021284E
:100BF0001ED0222838D124E02179A07801AAFFF75D
:100C0000EDFE08B101201CBD30E02179A0786A46D4
:100C1000FFF726FF08B10120F5E7BDF8000000123C
:100C20008DF80400BDF80000C0B28DF805001DE08D
:100C3000A188A07801AAFFF716FF08B10120E2E71A
:100C400014E0A188A0786A46FFF75CFF08B1012094
:100C5000D9E7BDF8000000128DF80400BDF80000CF
:100C6000C0B28DF8050001E00120CCE700BF20787C
:100C7000122802D02078222812D10020E080E088BB
:100C80009DF804100843E080E0884FF6FF7101EA08
:100C90000020E080E0889DF805100843E08002E035
:100CA0009DF80400E0800020ADE70346704703464E
:100CB000704703467047000010B56FF0040000F065
:100CC0007AF92E4800682E49B0FBF1F02D490870E2
:100CD0000846007800EB4001C1EBC0104FF6FF71F1
:100CE00001EAC0002849088010BD0146254A127853
:100CF0004A434FF0E0235A6100229A611A46126972
:100D000042F001021A6100BF4FF0E022106900F0CA
:100D100001021AB100F48032002AF5D04FF0E0222F
:100D2000126922F001024FF0E0231A6100229A6159
:100D300070470146144A12884A434FF0E0235A6133
:100D400000229A611A46126942F001021A6100BF3C
:100D50004FF0E022106900F001021AB100F4803275
:100D6000002AF5D04FF0E022126922F001024FF084
:100D7000E0231A6100229A61704700000000002001
:100D800000127A00140000201600002010B54FF465
:100D9000A06000F0C1F810BD014600BF704700BF61
:100DA000494A128802F04002002AF9D0C2B2464BEA
:100DB0001B1D1A80704710B586B00446012144F20D
:100DC000050000F033FC4FF40070ADF81400032070
:100DD0008DF8160018208DF8170005A93B4800F083
:100DE00069F94FF48060ADF8140004208DF8170005
:100DF00005A9364800F05EF925208DF80000032093
:100E00008DF801008DF8020001208DF8030068467E
:100E100000F087F801940020ADF80800ADF80A0052
:100E2000ADF80C00ADF810000C20ADF80E0001A9D3
:100E3000254800F0A2FC012240F22551224800F092
:100E400034FD0121204800F024FD06B010BD10B58E
:100E500040F225511C4800F00DFE10B31A4800F076
:100E600089FDC4B21A48008800F40040C8B9184887
:100E7000008800F4804060B10A2C03D0002014499F
:100E8000088020E01248008840F4004010490880A3
:100E900019E00D2C06D10E48008840F480400C4922
:100EA000088010E00A480088C0F30D0009490C547E
:100EB00007480088401C0649088008460088C72863
:100EC00001DD0020088010BD00380140000801400D
:100ED0001C000020340000200948804709480047D2
:100EE000FEE7FEE7FEE7FEE7FEE7FEE7FEE7FEE7DA
:100EF000FEE7FEE704480549054A064B7047000037
:100F00003B03000831010008600100206007002059
:100F1000600300206003002031490143314A116021
:100F2000704770B5002100230F22C47804B32D4C04
:100F3000246804F4E064C4F5E064210AC1F1040308
:100F4000CA40447804FA03F184781440214309012B
:100F5000254C0678A155047804F01F050124AC4007
:100F600005786D11AD0005F1E025C5F8004109E0F7
:100F7000047804F01F050124AC401C4D067876115E
:100F800045F8264070BD1A4A0A400243154B1B1F04
:100F90001A60704739B1134A121D12680243114B8F
:100FA0001B1D1A6006E00F4A121D126882430D4B8A
:100FB0001B1D1A607047042808D14FF0E021096911
:100FC00041F004014FF0E022116107E04FF0E02111
:100FD000096921F004014FF0E0221161704700001F
:100FE0000000FA050CED00E000E400E080E100E024
:100FF00080FFFF1F10B50446CC48844208D1012170
:10100000042000F02DFB0021042000F029FB46E025
:10101000C748844208D10121082000F021FB0021AB
:10102000082000F01DFB3AE0C248844208D10121AB
:10103000102000F015FB0021102000F011FB2EE025
:10104000BD48844208D10121202000F009FB002185
:10105000202000F005FB22E0B848844208D101219D
:10106000402000F0FDFA0021402000F0F9FA16E0DF
:10107000B348844208D10121802000F0F1FA002118
:10108000802000F0EDFA0AE0AE48844207D1012149
:10109000801500F0E5FA0021A01500F0E1FA10BD7E
:1010A00010B50121084600F0DBFA0021012000F014
:1010B000D7FA10BD2DE9F041024600250026002098
:1010C00000230024002791F803C00CF00F0591F8CD
:1010D00003C00CF0100CBCF1000F03D091F802C05B
:1010E0004CEA050591F800C0BCF1000F31D014683E
:1010F00000202BE04FF0010C0CFA00F3B1F800C017
:101100000CEA03069E4220D183004FF00F0C0CFA2C
:1011100003F7BC4305FA03FC4CEA040491F803C04E
:10112000BCF1280F06D14FF0010C0CFA00FCC2F8FC
:1011300014C00AE091F803C0BCF1480F05D14FF08C
:10114000010C0CFA00FCC2F810C0401C0828D1D3D6
:101150001460B1F800C0BCF1FF0F34DD546800200A
:101160002EE000F1080C4FF0010808FA0CF3B1F87A
:1011700000C00CEA03069E4221D183004FF00F0C01
:101180000CFA03F7BC4305FA03FC4CEA040491F89B
:1011900003C0BCF1280F05D100F1080C08FA0CF8C7
:1011A000C2F8148091F803C0BCF1480F07D100F1D8
:1011B000080C4FF0010808FA0CF8C2F81080401C27
:1011C0000828CED35460BDE8F0814FF6FF7101804E
:1011D000022181700421C17070470246002093688B
:1011E0000B400BB1012000E00020704701468868E9
:1011F00080B2704702460020D3680B400BB101203B
:1012000000E0002070470146C86880B27047016165
:101210007047416170470AB1016100E04161704768
:10122000C16070474FF480320A43826181618261FC
:1012300082698269704702460020434B18684FF666
:101240008073184040EA021008433F4B1860704713
:101250003E49C8617047F0B50A46002300240021CA
:10126000002500F00046B6F1004F02D1364EF1697C
:1012700001E0354E7168C0F3034583B200F44016B7
:10128000B6F5401F08D121F070612F4E766826F028
:1012900070662D4F7E6012E000F48016B6F5801F58
:1012A00006D1032606FA05F4A14341F0706106E079
:1012B000460D360103FA06F6B14341F0706122B1E2
:1012C000460D360103FA06F6314300F00046B6F14A
:1012D000004F02D11C4EF16101E01B4E7160F0BD68
:1012E00030B500228B071C0F0F2303FA04F2164BB4
:1012F00008338C1053F824309343134C08348D106A
:1013000044F8253023468C1053F824308C07240FE2
:1013100000FA04F423430C4C08348D1044F82530B3
:1013200030BD0A49DC310860704700000008014008
:10133000000C014000100140001401400018014061
:10134000001C01400020014000000140000020423C
:10135000DF48006840F00100DD4908600846406849
:10136000DC490840DA49486008460068DA49084024
:10137000D74908600846006820F4802008600846C5
:10138000406820F4FE0048604FF41F0088607047FA
:10139000CF49096821F48031CD4A116011460968AE
:1013A00021F480211160B0F5803F03D0B0F5802F8B
:1013B0000ED106E0C649096841F48031C44A116083
:1013C00007E0C349096841F4A021C14A116000E067
:1013D00000BF00BF704710B5014600220023002067
:1013E0004A11012A02D1BA4C236806E0022A02D12E
:1013F000B74C236A01E0B64C636A01F01F02012476
:1014000094401C400CB1012000E0002010BD38B514
:10141000002000900024002500BF3120FFF7DBFFF3
:1014200005460098401C00900098B0F5A06F01D0D0
:10143000002DF2D03120FFF7CEFF08B1012400E0EB
:101440000024204638BD01460020A14A106820F043
:10145000F80040EAC10010607047A049086070477A
:10146000024600209A4B586820F47C1042EA01039F
:101470001843974B58607047984908667047014673
:101480000020934A506820F00300084350607047E2
:101490008F48406800F00C007047014600208C4ADD
:1014A000506820F0F000084350607047014600206B
:1014B000874A506820F4E060084350607047014656
:1014C0000020834A506820F4605040EAC100506018
:1014D000704729B17E4A527A02437D4B5A7204E02A
:1014E0007B4A527A82437A4B5A7270477B49D83191
:1014F0000860704701460020754A506820F440405B
:101500000843506070470021714A20321170704AC0
:1015100082F82010012802D004280AD104E0012119
:101520006B4A2032117005E00521694A20321170A2
:1015300000E000BF00BF7047694908607047644918
:10154000096A0143624A116270476549443908607B
:10155000704730B500210022002400235C4D6D68E7
:1015600005F00C0121B1042905D0082923D105E09B
:101570005C4D056022E05B4D05601FE0544D6D68D9
:1015800005F47012524D6D6805F48034022505EBA8
:1015900092421CB9544D554305600BE04C4D6D68AB
:1015A00005F400351DB1504D5543056002E04D4D29
:1015B0005543056002E04B4D056000BF00BF444D40
:1015C0006D6805F0F0010909484D6B5C0568DD4068
:1015D00045603F4D6D6805F4E061090A434D6B5C61
:1015E0004568DD4085603A4D6D6805F46051C90A73
:1015F0003E4D6B5C4568DD40C560354D6D6805F45A
:101600004041890B3A4D6B5CC568B5FBF3F505614C
:1016100030BD29B12E4A526902432D4B5A6104E074
:101620002B4A526982432A4B5A61704729B1284A92
:1016300092690243264B9A6104E0254A92698243EB
:10164000234B9A61704729B1214AD2690243204B4A
:10165000DA6104E01E4AD26982431D4BDA617047A9
:1016600029B11B4AD2680243194BDA6004E0184AD8
:10167000D2688243164BDA60704729B1144A126966
:101680000243134B1A6104E0114A12698243104B62
:101690001A61704712494039086070470F49C864A1
:1016A00070470B49C87170470948406A40F0807024
:1016B00007494862704701460020054A92680A407F
:1016C0000AB1012000E0002070470149887270478C
:1016D000001002400000FFF8FFFFF6FE000042424B
:1016E0008004424200127A0000093D001E000020E2
:1016F0002E00002010B50446FB48844209D1012188
:101700008803FFF7ADFF00214FF48040FFF7A8FFEB
:1017100032E0F648844209D101214804FFF7ADFFC9
:1017200000214FF40030FFF7A8FF25E0F048844285
:1017300009D101218804FFF7A0FF00214FF4802088
:10174000FFF79BFF18E0EB48844209D10121C80450
:10175000FFF793FF00214FF40020FFF78EFF0BE00F
:10176000E548844208D101210805FFF786FF0021E2
:101770004FF48010FFF781FF10BD2DE9F04786B0D0
:1017800005460E460024A24600BFA1460027B089A8
:1017900000B100BF2F462C8A4CF6FF700440F08841
:1017A00004432C82AC894EF6F3100440B088318992
:1017B0000843718908430443AC81AC8A4FF6FF406B
:1017C0000440B0890443AC8201A8FFF7C2FEC648BA
:1017D000874202D1DDF810A001E0DDF80CA0A88955
:1017E00000F4004040B10AEBCA0000EB0A10316877
:1017F0004900B0FBF1F807E00AEBCA0000EB0A1061
:1018000031688900B0FBF1F86420B8FBF0F0040106
:101810002009642101FB1089A88900F4004040B12F
:10182000322000EBC900B0FBF1F000F007000443E8
:1018300008E0322000EB09106421B0FBF1F000F069
:101840000F0004432C8106B0BDE8F0874FF4165119
:10185000016000218180C18001810C214181002132
:101860008181704710B502460020108A4FF2FF03B5
:1018700018400B884C8823438C882343CC8823430F
:101880001843108210BD0021018041808180C180F9
:10189000704721B1828942F40052828104E082893A
:1018A0004DF6FF731A4082817047F0B5034600245D
:1018B00000260025002040F66A17B94200D100BF7B
:1018C0001846C1F3421401F01F06012707FA06F576
:1018D000012C01D10C3004E0022C01D1103000E0C9
:1018E00014301AB107682F43076002E00768AF435E
:1018F0000760F0BD1AB1838A0B43838202E0838ABA
:101900008B4383827047028A4FF6F0731A4002823B
:10191000028A0A430282704782894FF2FF731A409B
:10192000828182890A438281704721B1828942F093
:101930000202828104E082894FF6FD731A4082819F
:101940007047028A4FF6DF731A400282028A0A4306
:101950000282704721B1028A42F48042028204E08E
:10196000028A4BF6FF731A4002827047C1F30802E5
:101970008280704701468888C0F3080070478189DB
:1019800041F0010181817047028BD2B20283028B48
:1019900042EA012202837047028B02F47F420283F3
:1019A000028B0A430283704721B1828A42F02002EF
:1019B000828204E0828A4FF6DF731A408282704787
:1019C00021B1828A42F01002828204E0828A4FF6BC
:1019D000EF731A408282704721B1828A42F0080276
:1019E000828204E0828A4FF6F7731A40828270473F
:1019F00021B1828942F40042828103E08289C2F3EC
:101A00000E028281704721B1828A42F40062828292
:101A100004E0828A4FF2FF731A4082827047828A02
:101A20004FF6FB731A408282828A0A438282704791
:101A300021B1828A42F00202828204E0828A4FF659
:101A4000FD731A408282704702460020B1F5007F84
:101A500000D100BF13880B400BB1012000E0002033
:101A6000704701F40072B2F5007F00D100BFCA4395
:101A70000280704770B50246002400230025002034
:101A800040F66A16B14200D100BFC1F3421501F021
:101A90001F03012606FA03F3012D02D19689334074
:101AA00006E0022D02D1168A334001E0968A3340C7
:101AB0000C12012606FA04F41688344013B10CB156
:101AC000012000E0002070BD10B50022002340F688
:101AD0006A14A14200D100BF0A1201249440A3B2AB
:101AE000DC43048010BD0000003801400044004089
:101AF00000480040004C00400050004070477047D4
:101B0000704770477047754600F02CF8AE460500E8
:101B10006946534620F00700854618B020B5FFF708
:101B2000E9F9BDE820404FF000064FF000074FF004
:101B300000084FF0000B21F00701AC46ACE8C009EB
:101B4000ACE8C009ACE8C009ACE8C0098D467047F4
:101B500010B50446AFF300802046BDE81040FEF704
:101B60002EBB000000487047FC0000208C1B0008C2
:101B700000000020340000006C010008C01B0008B9
:101B8000340000202C0700008801000800A24A044D
:101B9000000000000000000001020304060708091D
:101BA0000000000000000000000000000000010232
:101BB00003040102030406070809020406080000E2
:0400000508000131BD
:00000001FF
